{
  "contractName": "Auction",
  "abi": [
    {
      "inputs": [
        {
          "internalType": "address",
          "name": "_owner",
          "type": "address"
        },
        {
          "internalType": "string",
          "name": "_item",
          "type": "string"
        },
        {
          "internalType": "uint256",
          "name": "_biddingTimeInSeconds",
          "type": "uint256"
        }
      ],
      "stateMutability": "nonpayable",
      "type": "constructor"
    },
    {
      "anonymous": false,
      "inputs": [
        {
          "indexed": false,
          "internalType": "address",
          "name": "winner",
          "type": "address"
        },
        {
          "indexed": false,
          "internalType": "uint256",
          "name": "amount",
          "type": "uint256"
        }
      ],
      "name": "AuctionEnded",
      "type": "event"
    },
    {
      "anonymous": false,
      "inputs": [
        {
          "indexed": false,
          "internalType": "address",
          "name": "bidder",
          "type": "address"
        },
        {
          "indexed": false,
          "internalType": "uint256",
          "name": "amount",
          "type": "uint256"
        }
      ],
      "name": "HighestBidIncreased",
      "type": "event"
    },
    {
      "inputs": [],
      "name": "auctionEndTime",
      "outputs": [
        {
          "internalType": "uint256",
          "name": "",
          "type": "uint256"
        }
      ],
      "stateMutability": "view",
      "type": "function"
    },
    {
      "inputs": [],
      "name": "ended",
      "outputs": [
        {
          "internalType": "bool",
          "name": "",
          "type": "bool"
        }
      ],
      "stateMutability": "view",
      "type": "function"
    },
    {
      "inputs": [],
      "name": "highestBid",
      "outputs": [
        {
          "internalType": "uint256",
          "name": "",
          "type": "uint256"
        }
      ],
      "stateMutability": "view",
      "type": "function"
    },
    {
      "inputs": [],
      "name": "highestBidder",
      "outputs": [
        {
          "internalType": "address",
          "name": "",
          "type": "address"
        }
      ],
      "stateMutability": "view",
      "type": "function"
    },
    {
      "inputs": [],
      "name": "item",
      "outputs": [
        {
          "internalType": "string",
          "name": "",
          "type": "string"
        }
      ],
      "stateMutability": "view",
      "type": "function"
    },
    {
      "inputs": [],
      "name": "owner",
      "outputs": [
        {
          "internalType": "address",
          "name": "",
          "type": "address"
        }
      ],
      "stateMutability": "view",
      "type": "function"
    },
    {
      "inputs": [
        {
          "internalType": "address",
          "name": "",
          "type": "address"
        }
      ],
      "name": "pendingReturns",
      "outputs": [
        {
          "internalType": "uint256",
          "name": "",
          "type": "uint256"
        }
      ],
      "stateMutability": "view",
      "type": "function"
    },
    {
      "inputs": [],
      "name": "bid",
      "outputs": [],
      "stateMutability": "payable",
      "type": "function"
    },
    {
      "inputs": [],
      "name": "withdraw",
      "outputs": [
        {
          "internalType": "bool",
          "name": "",
          "type": "bool"
        }
      ],
      "stateMutability": "nonpayable",
      "type": "function"
    },
    {
      "inputs": [],
      "name": "endAuction",
      "outputs": [],
      "stateMutability": "nonpayable",
      "type": "function"
    }
  ],
  "bytecode": "0x60806040523480156200001157600080fd5b50604051620013f4380380620013f48339818101604052810190620000379190620002d9565b826000806101000a81548173ffffffffffffffffffffffffffffffffffffffff021916908373ffffffffffffffffffffffffffffffffffffffff160217905550816001908162000088919062000595565b508042620000979190620006ab565b600281905550505050620006e6565b6000604051905090565b600080fd5b600080fd5b600073ffffffffffffffffffffffffffffffffffffffff82169050919050565b6000620000e782620000ba565b9050919050565b620000f981620000da565b81146200010557600080fd5b50565b6000815190506200011981620000ee565b92915050565b600080fd5b600080fd5b6000601f19601f8301169050919050565b7f4e487b7100000000000000000000000000000000000000000000000000000000600052604160045260246000fd5b620001748262000129565b810181811067ffffffffffffffff821117156200019657620001956200013a565b5b80604052505050565b6000620001ab620000a6565b9050620001b9828262000169565b919050565b600067ffffffffffffffff821115620001dc57620001db6200013a565b5b620001e78262000129565b9050602081019050919050565b60005b8381101562000214578082015181840152602081019050620001f7565b60008484015250505050565b6000620002376200023184620001be565b6200019f565b90508281526020810184848401111562000256576200025562000124565b5b62000263848285620001f4565b509392505050565b600082601f8301126200028357620002826200011f565b5b81516200029584826020860162000220565b91505092915050565b6000819050919050565b620002b3816200029e565b8114620002bf57600080fd5b50565b600081519050620002d381620002a8565b92915050565b600080600060608486031215620002f557620002f4620000b0565b5b6000620003058682870162000108565b935050602084015167ffffffffffffffff811115620003295762000328620000b5565b5b62000337868287016200026b565b92505060406200034a86828701620002c2565b9150509250925092565b600081519050919050565b7f4e487b7100000000000000000000000000000000000000000000000000000000600052602260045260246000fd5b60006002820490506001821680620003a757607f821691505b602082108103620003bd57620003bc6200035f565b5b50919050565b60008190508160005260206000209050919050565b60006020601f8301049050919050565b600082821b905092915050565b600060088302620004277fffffffffffffffffffffffffffffffffffffffffffffffffffffffffffffffff82620003e8565b620004338683620003e8565b95508019841693508086168417925050509392505050565b6000819050919050565b600062000476620004706200046a846200029e565b6200044b565b6200029e565b9050919050565b6000819050919050565b620004928362000455565b620004aa620004a1826200047d565b848454620003f5565b825550505050565b600090565b620004c1620004b2565b620004ce81848462000487565b505050565b5b81811015620004f657620004ea600082620004b7565b600181019050620004d4565b5050565b601f82111562000545576200050f81620003c3565b6200051a84620003d8565b810160208510156200052a578190505b620005426200053985620003d8565b830182620004d3565b50505b505050565b600082821c905092915050565b60006200056a600019846008026200054a565b1980831691505092915050565b600062000585838362000557565b9150826002028217905092915050565b620005a08262000354565b67ffffffffffffffff811115620005bc57620005bb6200013a565b5b620005c882546200038e565b620005d5828285620004fa565b600060209050601f8311600181146200060d5760008415620005f8578287015190505b62000604858262000577565b86555062000674565b601f1984166200061d86620003c3565b60005b82811015620006475784890151825560018201915060208501945060208101905062000620565b8683101562000667578489015162000663601f89168262000557565b8355505b6001600288020188555050505b505050505050565b7f4e487b7100000000000000000000000000000000000000000000000000000000600052601160045260246000fd5b6000620006b8826200029e565b9150620006c5836200029e565b9250828201905080821115620006e057620006df6200067c565b5b92915050565b610cfe80620006f66000396000f3fe6080604052600436106100915760003560e01c80638da5cb5b116100595780638da5cb5b1461015e57806391f9015714610189578063d57bde79146101b4578063f2a4a82e146101df578063fe67a54b1461020a57610091565b806312fa6feb146100965780631998aeef146100c157806326b387bb146100cb5780633ccfd60b146101085780634b449cba14610133575b600080fd5b3480156100a257600080fd5b506100ab610221565b6040516100b89190610805565b60405180910390f35b6100c9610234565b005b3480156100d757600080fd5b506100f260048036038101906100ed9190610883565b6103c4565b6040516100ff91906108c9565b60405180910390f35b34801561011457600080fd5b5061011d6103dc565b60405161012a9190610805565b60405180910390f35b34801561013f57600080fd5b50610148610500565b60405161015591906108c9565b60405180910390f35b34801561016a57600080fd5b50610173610506565b60405161018091906108f3565b60405180910390f35b34801561019557600080fd5b5061019e61052a565b6040516101ab91906108f3565b60405180910390f35b3480156101c057600080fd5b506101c9610550565b6040516101d691906108c9565b60405180910390f35b3480156101eb57600080fd5b506101f4610556565b604051610201919061099e565b60405180910390f35b34801561021657600080fd5b5061021f6105e4565b005b600660009054906101000a900460ff1681565b6002544210610278576040517f08c379a000000000000000000000000000000000000000000000000000000000815260040161026f90610a0c565b60405180910390fd5b60045434116102bc576040517f08c379a00000000000000000000000000000000000000000000000000000000081526004016102b390610a78565b60405180910390fd5b6000600454146103415760045460056000600360009054906101000a900473ffffffffffffffffffffffffffffffffffffffff1673ffffffffffffffffffffffffffffffffffffffff1673ffffffffffffffffffffffffffffffffffffffff16815260200190815260200160002060008282546103399190610ac7565b925050819055505b33600360006101000a81548173ffffffffffffffffffffffffffffffffffffffff021916908373ffffffffffffffffffffffffffffffffffffffff160217905550346004819055507ff4757a49b326036464bec6fe419a4ae38c8a02ce3e68bf0809674f6aab8ad30033346040516103ba929190610afb565b60405180910390a1565b60056020528060005260406000206000915090505481565b600080600560003373ffffffffffffffffffffffffffffffffffffffff1673ffffffffffffffffffffffffffffffffffffffff16815260200190815260200160002054905060008111156104f7576000600560003373ffffffffffffffffffffffffffffffffffffffff1673ffffffffffffffffffffffffffffffffffffffff168152602001908152602001600020819055503373ffffffffffffffffffffffffffffffffffffffff166108fc829081150290604051600060405180830381858888f193505050506104f65780600560003373ffffffffffffffffffffffffffffffffffffffff1673ffffffffffffffffffffffffffffffffffffffff1681526020019081526020016000208190555060009150506104fd565b5b60019150505b90565b60025481565b60008054906101000a900473ffffffffffffffffffffffffffffffffffffffff1681565b600360009054906101000a900473ffffffffffffffffffffffffffffffffffffffff1681565b60045481565b6001805461056390610b53565b80601f016020809104026020016040519081016040528092919081815260200182805461058f90610b53565b80156105dc5780601f106105b1576101008083540402835291602001916105dc565b820191906000526020600020905b8154815290600101906020018083116105bf57829003601f168201915b505050505081565b600254421015610629576040517f08c379a000000000000000000000000000000000000000000000000000000000815260040161062090610bd0565b60405180910390fd5b600660009054906101000a900460ff1615610679576040517f08c379a000000000000000000000000000000000000000000000000000000000815260040161067090610c3c565b60405180910390fd5b60008054906101000a900473ffffffffffffffffffffffffffffffffffffffff1673ffffffffffffffffffffffffffffffffffffffff163373ffffffffffffffffffffffffffffffffffffffff1614610707576040517f08c379a00000000000000000000000000000000000000000000000000000000081526004016106fe90610ca8565b60405180910390fd5b6001600660006101000a81548160ff0219169083151502179055507fdaec4582d5d9595688c8c98545fdd1c696d41c6aeaeb636737e84ed2f5c00eda600360009054906101000a900473ffffffffffffffffffffffffffffffffffffffff16600454604051610777929190610afb565b60405180910390a160008054906101000a900473ffffffffffffffffffffffffffffffffffffffff1673ffffffffffffffffffffffffffffffffffffffff166108fc6004549081150290604051600060405180830381858888f193505050501580156107e7573d6000803e3d6000fd5b50565b60008115159050919050565b6107ff816107ea565b82525050565b600060208201905061081a60008301846107f6565b92915050565b600080fd5b600073ffffffffffffffffffffffffffffffffffffffff82169050919050565b600061085082610825565b9050919050565b61086081610845565b811461086b57600080fd5b50565b60008135905061087d81610857565b92915050565b60006020828403121561089957610898610820565b5b60006108a78482850161086e565b91505092915050565b6000819050919050565b6108c3816108b0565b82525050565b60006020820190506108de60008301846108ba565b92915050565b6108ed81610845565b82525050565b600060208201905061090860008301846108e4565b92915050565b600081519050919050565b600082825260208201905092915050565b60005b8381101561094857808201518184015260208101905061092d565b60008484015250505050565b6000601f19601f8301169050919050565b60006109708261090e565b61097a8185610919565b935061098a81856020860161092a565b61099381610954565b840191505092915050565b600060208201905081810360008301526109b88184610965565b905092915050565b7f41756374696f6e20616c726561647920656e6465642e00000000000000000000600082015250565b60006109f6601683610919565b9150610a01826109c0565b602082019050919050565b60006020820190508181036000830152610a25816109e9565b9050919050565b7f546865726520616c7265616479206973206120686967686572206269642e0000600082015250565b6000610a62601e83610919565b9150610a6d82610a2c565b602082019050919050565b60006020820190508181036000830152610a9181610a55565b9050919050565b7f4e487b7100000000000000000000000000000000000000000000000000000000600052601160045260246000fd5b6000610ad2826108b0565b9150610add836108b0565b9250828201905080821115610af557610af4610a98565b5b92915050565b6000604082019050610b1060008301856108e4565b610b1d60208301846108ba565b9392505050565b7f4e487b7100000000000000000000000000000000000000000000000000000000600052602260045260246000fd5b60006002820490506001821680610b6b57607f821691505b602082108103610b7e57610b7d610b24565b5b50919050565b7f41756374696f6e206e6f742079657420656e6465642e00000000000000000000600082015250565b6000610bba601683610919565b9150610bc582610b84565b602082019050919050565b60006020820190508181036000830152610be981610bad565b9050919050565b7f41756374696f6e20656e6420616c72656164792063616c6c65642e0000000000600082015250565b6000610c26601b83610919565b9150610c3182610bf0565b602082019050919050565b60006020820190508181036000830152610c5581610c19565b9050919050565b7f4f6e6c79206f776e65722063616e20656e64207468652061756374696f6e2e00600082015250565b6000610c92601f83610919565b9150610c9d82610c5c565b602082019050919050565b60006020820190508181036000830152610cc181610c85565b905091905056fea264697066735822122080952214cc0447ea42668e923c44291408b8a0d8e4166d418467999644e65c6c64736f6c63430008120033",
  "immutableReferences": {},
  "source": "// SPDX-License-Identifier: MIT\r\npragma solidity ^0.8.18;\r\n\r\ncontract Auction {\r\n    address public owner;\r\n    string public item;\r\n    uint public auctionEndTime;\r\n\r\n    address public highestBidder;\r\n    uint public highestBid;\r\n\r\n    mapping(address => uint) public pendingReturns;\r\n    bool public ended;\r\n\r\n    event HighestBidIncreased(address bidder, uint amount);\r\n    event AuctionEnded(address winner, uint amount);\r\n\r\n    constructor(\r\n        address _owner,\r\n        string memory _item,\r\n        uint _biddingTimeInSeconds\r\n    ) {\r\n        owner = _owner;\r\n        item = _item;\r\n        auctionEndTime = block.timestamp + _biddingTimeInSeconds;\r\n    }\r\n\r\n    function bid() public payable {\r\n        require(block.timestamp < auctionEndTime, \"Auction already ended.\");\r\n        require(msg.value > highestBid, \"There already is a higher bid.\");\r\n\r\n        if (highestBid != 0) {\r\n            pendingReturns[highestBidder] += highestBid;\r\n        }\r\n\r\n        highestBidder = msg.sender;\r\n        highestBid = msg.value;\r\n\r\n        emit HighestBidIncreased(msg.sender, msg.value);\r\n    }\r\n\r\n    function withdraw() public returns (bool) {\r\n        uint amount = pendingReturns[msg.sender];\r\n        if (amount > 0) {\r\n            pendingReturns[msg.sender] = 0;\r\n            if (!payable(msg.sender).send(amount)) {\r\n                pendingReturns[msg.sender] = amount;\r\n                return false;\r\n            }\r\n        }\r\n        return true;\r\n    }\r\n\r\n    function endAuction() public {\r\n        require(block.timestamp >= auctionEndTime, \"Auction not yet ended.\");\r\n        require(!ended, \"Auction end already called.\");\r\n        require(msg.sender == owner, \"Only owner can end the auction.\");\r\n\r\n        ended = true;\r\n        emit AuctionEnded(highestBidder, highestBid);\r\n        payable(owner).transfer(highestBid);\r\n    }\r\n}\r\n",
  "sourcePath": "F:\\blockchain\\try again\\contracts\\Auction.sol",
  "compiler": {
    "name": "solc",
    "version": "0.8.18+commit.87f61d96.Emscripten.clang"
  },
  "schemaVersion": "3.4.16",
  "updatedAt": "2025-04-10T19:32:50.245Z",
  "devdoc": {
    "kind": "dev",
    "methods": {},
    "version": 1
  },
  "userdoc": {
    "kind": "user",
    "methods": {},
    "version": 1
  }
}